:020000040800F2
:1000000000500020A5570008D1160008DD16000892
:10001000E3160008E9160008EF16000800000000CB
:10002000000000000000000000000000F5160008BD
:1000300001170008000000000D170008191700083C
:10004000ED57000825170008ED570008ED57000888
:10005000311700083D170008ED570008ED5700085C
:10006000ED570008ED570008ED5700084917000844
:10007000ED570008ED570008ED570008ED57000850
:10008000ED570008ED57000865170008ED57000808
:10009000ED570008ED570008ED570008ED57000830
:1000A000791700088D170008A1170008B517000878
:1000B000C9170008ED570008ED570008ED57000874
:1000C000ED570008ED570008ED570008ED57000800
:1000D000ED570008DD170008ED570008F11700087C
:1000E000ED570008ED570008ED570008000000002C
:1000F0000000000000000000000000000000000000
:0C01000000000000000000005FF808F1A3
:10010C0010B5054C237833B9044B13B10448AFF345
:10011C0000800123237010BDD800002000000000D7
:10012C00CC73000808B5034B1BB103490348AFF36C
:10013C00008008BD00000000DC000020CC7300082B
:10014C0080F0004002E000BF81F0004142001FBF80
:10015C005FEA410392EA030F7FEA226C7FEA236C89
:10016C006AD04FEA1262D2EB1363C1BFD21841407E
:10017C0048404140B8BF5B42192B88BF704710F014
:10018C00004F40F4000020F07F4018BF404211F0B7
:10019C00004F41F4000121F07F4118BF494292EA1F
:1001AC00030F3FD0A2F1010241FA03FC10EB0C004B
:1001BC00C3F1200301FA03F100F0004302D54942D8
:1001CC0060EB4000B0F5000F13D3B0F1807F06D385
:1001DC0040084FEA310102F10102FE2A51D2B1F17D
:1001EC00004F40EBC25008BF20F0010040EA030072
:1001FC007047490040EB0000013A28BFB0F5000FF2
:10020C00EDD2B0FA80FCACF1080CB2EB0C0200FAA7
:10021C000CF0AABF00EBC25052421843BCBFD040F6
:10022C001843704792F0000F81F4000106BF80F470
:10023C0000000132013BB5E74FEA41037FEA226C33
:10024C0018BF7FEA236C21D092EA030F04D092F0FE
:10025C00000F08BF0846704790EA010F1CBF002032
:10026C00704712F07F4F04D1400028BF40F000408F
:10027C00704712F100723CBF00F50000704700F0AF
:10028C00004343F0FE4040F4000070477FEA2262D6
:10029C0016BF08467FEA23630146420206BF5FEAA7
:1002AC00412390EA010F40F4800070474FF00003A7
:1002BC0004E000BF10F0004348BF40425FEA000C6E
:1002CC0008BF704743F0964301464FF000001CE016
:1002DC0050EA010208BF70474FF000030AE000BF6C
:1002EC0050EA010208BF704711F0004302D54042AA
:1002FC0061EB41015FEA010C02BF8446014600201C
:10030C0043F0B64308BFA3F18053A3F50003BCFA36
:10031C008CF2083AA3EBC25310DB01FA02FC6344E3
:10032C0000FA02FCC2F12002BCF1004F20FA02F2EA
:10033C0043EB020008BF20F00100704702F12002DD
:10034C0001FA02FCC2F1200250EA4C0021FA02F23E
:10035C0043EB020008BF20EADC7070474FF0FF0C43
:10036C001CEAD0521EBF1CEAD15392EA0C0F93EA3E
:10037C000C0F6FD01A4480EA010C400218BF5FEAE0
:10038C0041211ED04FF0006343EA501043EA511153
:10039C00A0FB01310CF00040B1F5000F3EBF49004D
:1003AC0041EAD3715B0040EA010062F17F02FD2A51
:1003BC001DD8B3F1004F40EBC25008BF20F0010034
:1003CC00704790F0000F0CF0004C08BF49024CEA4B
:1003DC00502040EA51207F3AC2BFD2F1FF0340EADD
:1003EC00C250704740F400004FF00003013A5DDC4E
:1003FC0012F1190FDCBF00F000407047C2F100028F
:10040C00410021FA02F1C2F1200200FA02FC5FEA7B
:10041C00310040F1000053EA4C0308BF20EADC70C5
:10042C00704792F0000F00F0004C02BF400010F437
:10043C00000F013AF9D040EA0C0093F0000F01F0E4
:10044C00004C02BF490011F4000F013BF9D041EA06
:10045C000C018FE70CEAD15392EA0C0F18BF93EA08
:10046C000C0F0AD030F0004C18BF31F0004CD8D132
:10047C0080EA010000F00040704790F0000F17BFB9
:10048C0090F0004F084691F0000F91F0004F14D0FF
:10049C0092EA0C0F01D142020FD193EA0C0F03D157
:1004AC004B0218BF084608D180EA010000F000405A
:1004BC0040F0FE4040F40000704740F0FE4040F435
:1004CC00400070474FF0FF0C1CEAD0521EBF1CEAD4
:1004DC00D15392EA0C0F93EA0C0F69D0A2EB0302F2
:1004EC0080EA010C49024FEA402037D04FF080538C
:1004FC0043EA111143EA10130CF000408B4238BF51
:10050C005B0042F17D024FF4000C8B4224BF5B1A5E
:10051C0040EA0C00B3EB510F24BFA3EB510340EAAC
:10052C005C00B3EB910F24BFA3EB910340EA9C005A
:10053C00B3EBD10F24BFA3EBD10340EADC001B01CA
:10054C0018BF5FEA1C1CE0D1FD2A3FF650AF8B426E
:10055C0040EBC25008BF20F0010070470CF0004C7B
:10056C004CEA50207F32C2BFD2F1FF0340EAC250A6
:10057C00704740F400004FF00003013A37E792F067
:10058C00000F00F0004C02BF400010F4000F013AC5
:10059C00F9D040EA0C0093F0000F01F0004C02BFC0
:1005AC00490011F4000F013BF9D041EA0C0195E729
:1005BC000CEAD15392EA0C0F08D142027FF47DAFC2
:1005CC0093EA0C0F7FF470AF084676E793EA0C0FB2
:1005DC0004D14B023FF44CAF08466EE730F0004CB0
:1005EC0018BF31F0004CCAD130F000427FF45CAF40
:1005FC0031F000437FF43CAF5FE700BF4FF0FF3CAE
:10060C0006E000BF4FF0010C02E000BF4FF0010C00
:10061C004DF804CD4FEA40024FEA41037FEA226CC9
:10062C0018BF7FEA236C11D001B052EA530C18BFEB
:10063C0090EA010F58BFB2EB030088BFC81738BF50
:10064C006FEAE17018BF40F0010070477FEA226C3E
:10065C0002D15FEA402C05D17FEA236CE4D15FEA3A
:10066C00412CE1D05DF8040B704700BF844608466E
:10067C006146FFE70FB5FFF7C9FF002848BF10F12F
:10068C00000F0FBD4DF808EDFFF7F4FF0CBF012074
:10069C0000205DF808FB00BF4DF808EDFFF7EAFFFE
:1006AC0034BF012000205DF808FB00BF4DF808EDB9
:1006BC00FFF7E0FF94BF012000205DF808FB00BFAE
:1006CC004DF808EDFFF7D2FF94BF012000205DF834
:1006DC0008FB00BF4DF808EDFFF7C8FF34BF012041
:1006EC0000205DF808FB00BF42000ED2B2F1FE4FB5
:1006FC000BD34FF09E03B3EB126209D44FEA0023E5
:10070C0043F0004323FA02F070474FF000007047AB
:10071C0012F1610F01D1420202D14FF0FF3070474C
:10072C004FF00000704700BF81F0004102E000BFB5
:10073C0083F0004330B54FEA41044FEA430594EA95
:10074C00050F08BF90EA020F1FBF54EA000C55EAD0
:10075C00020C7FEA645C7FEA655C00F0E2804FEAA1
:10076C005454D4EB5555B8BF6D420CDD2C4480EA83
:10077C00020281EA030382EA000083EA010180EAB3
:10078C00020281EA0303362D88BF30BD11F0004F01
:10079C004FEA01314FF4801C4CEA113102D0404237
:1007AC0061EB410113F0004F4FEA03334CEA133372
:1007BC0002D0524263EB430394EA050F00F0A7808A
:1007CC00A4F10104D5F1200E0DDB02FA0EFC22FA85
:1007DC0005F2801841F1000103FA0EF2801843FA79
:1007EC0005F359410EE0A5F120050EF1200E012A6A
:1007FC0003FA0EFC28BF4CF0020C43FA05F3C018A8
:10080C0051EBE37101F0004507D54FF0000EDCF120
:10081C00000C7EEB00006EEB0101B1F5801F1BD3C9
:10082C00B1F5001F0CD349085FEA30004FEA3C0CCD
:10083C0004F101044FEA445212F5800F80F09A80C3
:10084C00BCF1004F08BF5FEA500C50F1000041EBC7
:10085C00045141EA050130BD5FEA4C0C404141EBCB
:10086C000101013C28BFB1F5801FE9D291F0000FC6
:10087C0004BF01460020B1FA81F308BF2033A3F175
:10088C000B03B3F120020CDA0C3208DD02F1140C6C
:10089C00C2F10C0201FA0CF021FA02F10CE002F1A7
:1008AC001402D8BFC2F1200C01FA02F120FA0CFCA0
:1008BC00DCBF41EA0C019040E41AA2BF01EB0451E9
:1008CC00294330BD6FEA04041F3C1CDA0C340EDCE7
:1008DC0004F11404C4F1200220FA04F001FA02F32A
:1008EC0040EA030021FA04F345EA030130BDC4F1E8
:1008FC000C04C4F1200220FA02F001FA04F340EADD
:10090C000300294630BD21FA04F0294630BD94F08D
:10091C00000F83F4801306BF81F480110134013D74
:10092C004EE77FEA645C18BF7FEA655C29D094EAE5
:10093C00050F08BF90EA020F05D054EA000C04BF63
:10094C001946104630BD91EA030F1EBF002100204E
:10095C0030BD5FEA545C05D14000494128BF41F0ED
:10096C00004130BD14F580043CBF01F5801130BD51
:10097C0001F0004545F0FE4141F470014FF00000DC
:10098C0030BD7FEA645C1ABF194610467FEA655C8D
:10099C001CBF0B46024650EA013406BF52EA03352F
:1009AC0091EA030F41F4002130BD00BF90F0000F1D
:1009BC0004BF0021704730B54FF4806404F1320459
:1009CC004FF000054FF0000150E700BF90F0000F12
:1009DC0004BF0021704730B54FF4806404F1320439
:1009EC0010F0004548BF40424FF000013EE700BF09
:1009FC0042004FEAE2014FEA31014FEA02701FBF99
:100A0C0012F07F4393F07F4F81F06051704732F0CA
:100A1C007F4208BF704793F07F4F04BF41F4002121
:100A2C00704730B54FF4607401F0004521F000417F
:100A3C001CE700BF50EA010208BF704730B54FF009
:100A4C0000050AE050EA010208BF704730B511F00A
:100A5C00004502D5404261EB41014FF4806404F142
:100A6C0032045FEA915C3FF4D8AE4FF003025FEAC8
:100A7C00DC0C18BF03325FEADC0C18BF033202EB4C
:100A8C00DC02C2F1200300FA03FC20FA02F001FAA6
:100A9C0003FE40EA0E0021FA02F11444BDE600BF49
:100AAC0070B54FF0FF0C4CF4E06C1CEA11541DBFF8
:100ABC001CEA135594EA0C0F95EA0C0F00F0DEF8C3
:100ACC002C4481EA030621EA4C5123EA4C5350EAA8
:100ADC00013518BF52EA033541F4801143F48013F9
:100AEC0038D0A0FB02CE4FF00005E1FB02E506F08A
:100AFC000042E0FB03E54FF00006E1FB03569CF0DF
:100B0C00000F18BF4EF0010EA4F1FF04B6F5007FE4
:100B1C0064F5407404D25FEA4E0E6D4146EB060656
:100B2C0042EAC62141EA55514FEAC52040EA5E50DF
:100B3C004FEACE2EB4F1FD0C88BFBCF5E06F1ED889
:100B4C00BEF1004F08BF5FEA500E50F1000041EBC0
:100B5C00045170BD06F0004646EA010140EA02006D
:100B6C0081EA0301B4EB5C04C2BFD4EB0C0541EA8F
:100B7C00045170BD41F480114FF0000E013C00F3A4
:100B8C00AB8014F1360FDEBF002001F0004170BDC8
:100B9C00C4F10004203C35DA0C341BDC04F11404E1
:100BAC00C4F1200500FA05F320FA04F001FA05F26D
:100BBC0040EA020001F0004221F0004110EBD3703A
:100BCC0021FA04F642EB06015EEA430E08BF20EA66
:100BDC00D37070BDC4F10C04C4F1200500FA04F309
:100BEC0020FA05F001FA04F240EA020001F000419B
:100BFC0010EBD37041F100015EEA430E08BF20EA0E
:100C0C00D37070BDC4F1200500FA05F24EEA020E55
:100C1C0020FA04F301FA05F243EA020321FA04F084
:100C2C0001F0004121FA04F220EA020000EBD3703B
:100C3C005EEA430E08BF20EAD37070BD94F0000F3B
:100C4C000FD101F00046400041EB010111F4801F6F
:100C5C0008BF013CF7D041EA060195F0000F18BF20
:100C6C00704703F00046520043EB030313F4801F5C
:100C7C0008BF013DF7D043EA0603704794EA0C0F16
:100C8C000CEA135518BF95EA0C0F0CD050EA41062C
:100C9C0018BF52EA4306D1D181EA030101F00041A9
:100CAC004FF0000070BD50EA410606BF10461946D1
:100CBC0052EA430619D094EA0C0F02D150EA0136DD
:100CCC0013D195EA0C0F05D152EA03361CBF10461E
:100CDC0019460AD181EA030101F0004141F0FE41BD
:100CEC0041F470014FF0000070BD41F0FE4141F441
:100CFC00780170BD70B54FF0FF0C4CF4E06C1CEA41
:100D0C0011541DBF1CEA135594EA0C0F95EA0C0FF5
:100D1C0000F0A7F8A4EB050481EA030E52EA0335B0
:100D2C004FEA013100F088804FEA03334FF08055D1
:100D3C0045EA131343EA12634FEA022245EA1115FE
:100D4C0045EA10654FEA00260EF000419D4208BFAF
:100D5C00964244F1FD0404F5407402D25B084FEA5C
:100D6C003202B61A65EB03055B084FEA32024FF408
:100D7C0080104FF4002CB6EB020E75EB030E22BF65
:100D8C00B61A754640EA0C005B084FEA3202B6EB25
:100D9C00020E75EB030E22BFB61A754640EA5C00D4
:100DAC005B084FEA3202B6EB020E75EB030E22BF64
:100DBC00B61A754640EA9C005B084FEA3202B6EB65
:100DCC00020E75EB030E22BFB61A754640EADC0024
:100DDC0055EA060E18D04FEA051545EA16754FEA86
:100DEC0006164FEAC30343EA52734FEAC2025FEAA4
:100DFC001C1CC0D111F4801F0BD141EA00014FF033
:100E0C0000004FF0004CB6E711F4801F04BF014303
:100E1C000020B4F1FD0C88BFBCF5E06F3FF6AFAE1F
:100E2C00B5EB030C04BFB6EB020C5FEA500C50F1AF
:100E3C00000041EB045170BD0EF0004E4EEA113132
:100E4C0014EB5C04C2BFD4EB0C0541EA045170BD39
:100E5C0041F480114FF0000E013C90E645EA060E7D
:100E6C008DE60CEA135594EA0C0F08BF95EA0C0FAB
:100E7C003FF43BAF94EA0C0F0AD150EA01347FF4F3
:100E8C0034AF95EA0C0F7FF425AF104619462CE7CA
:100E9C0095EA0C0F06D152EA03353FF4FDAE10462D
:100EAC00194622E750EA410618BF52EA43067FF47E
:100EBC00C5AE50EA41047FF40DAF52EA43057FF40E
:100ECC00EBAE12E74FEA4102B2F1E04324BFB3F5B7
:100EDC00001CDCF1FE5C0DD901F0004C4FEAC002A5
:100EEC004CEA5070B2F1004F40EB830008BF20F089
:100EFC000100704711F0804F21D113F13872BCBF43
:100F0C0001F00040704741F480114FEA5252C2F197
:100F1C001802C2F1200C10FA0CF320FA02F018BFE0
:100F2C0040F001004FEAC1234FEAD32303FA0CFC33
:100F3C0040EA0C0023FA02F34FEA4303CCE77FEAC2
:100F4C00625307D150EA01331EBF4FF0FE4040F40C
:100F5C004000704701F0004040F0FE4040F40000BB
:100F6C00704700BF4FEA40024FEA41037FEA226C10
:100F7C0002D15FEA402C08D17FEA236C02D15FEAF0
:100F8C00412C02D14FF0000070474FF00100704728
:100F9C004FEA4002B2F1FE4F0FD34FF09E03B3EB7A
:100FAC0012620DD94FEA002343F0004310F0004FBA
:100FBC0023FA02F018BF404270474FF00000704710
:100FCC0012F1610F01D1420205D110F0004008BFAF
:100FDC006FF0004070474FF00000704780B584B050
:100FEC0000AF00F0AFF93B1D00221A605A609A6006
:100FFC00824B834A1A60814B4FF480729A607F4B0C
:10100C0000221A737D4B00221A757C4B4FF4602220
:10101C00DA617A4B00225A60784B10221A617748B9
:10102C0001F0C4F90346002B01D000F0FBFA0F23AA
:10103C007B600123BB600123FB603B1D19466F489D
:10104C0001F052FC0346002B01D000F0EBFA082310
:10105C007B600223BB603B1D1946684801F044FCD1
:10106C000346002B01D000F0DDFA09237B6003233B
:10107C00BB603B1D1946614801F036FC0346002B52
:10108C0001D000F0CFFA0A237B600423BB603B1D28
:10109C0019465A4801F028FC0346002B01D000F0F9
:1010AC00C1FA0B237B600523BB603B1D19465348DB
:1010BC0001F01AFC0346002B01D000F0B3FA0C230C
:1010CC007B600623BB603B1D19464C4801F00CFCB1
:1010DC000346002B01D000F0A5FA0D237B600723FB
:1010EC00BB603B1D1946454801F0FEFB0346002B37
:1010FC0001D000F097FA00237B600823BB603B1DF6
:10110C0019463E4801F0F0FB0346002B01D000F0DD
:10111C0089FA01237B600923BB603B1D19463748C4
:10112C0001F0E2FB0346002B01D000F07BFA022316
:10113C007B600A23BB603B1D1946304801F0D4FB91
:10114C000346002B01D000F06DFA03237B600B23C8
:10115C00BB603B1D1946294801F0C6FB0346002B1A
:10116C0001D000F05FFA04237B600C23BB603B1DB5
:10117C001946224801F0B8FB0346002B01D000F0C1
:10118C0051FA05237B600D23BB603B1D19461B48A0
:10119C0001F0AAFB0346002B01D000F043FA062312
:1011AC007B600E23BB603B1D1946144801F09CFB71
:1011BC000346002B01D000F035FA07237B600F2388
:1011CC00BB603B1D19460D4801F08EFB0346002BFE
:1011DC0001D000F027FA0E237B601023BB603B1D6F
:1011EC001946064801F080FB0346002B01D000F0A5
:1011FC0019FA00BF1037BD4680BD00BFF4000020B7
:10120C000024014080B58AB000AF786007F1180364
:10121C0000221A605A609A60DA607B681B68424A46
:10122C0093427DD1414B9B69404A43F400739361D7
:10123C003E4B9B6903F400737B617B693B4B9B6961
:10124C003A4A43F010039361384B9B6903F0100347
:10125C003B613B69354B9B69344A43F00403936112
:10126C00324B9B6903F00403FB60FB682F4B9B69BB
:10127C002E4A43F0080393612C4B9B6903F008033F
:10128C00BB60BB683F23BB610323FB6107F1180301
:10129C001946274802F074FBFF23BB610323FB6153
:1012AC0007F118031946234802F06AFB0323BB61BC
:1012BC000323FB6107F1180319461F4802F060FB7A
:1012CC001E4B1F4A1A601D4B00225A601B4B0022FA
:1012DC009A601A4B8022DA60184B4FF480721A61B4
:1012EC00164B4FF480625A61144B00229A61134BD7
:1012FC000022DA61114801F0F9FD0346002B01D000
:10130C0000F090F97B680D4A1A620C4A7B685362B4
:10131C0000220A21122001F0B2FD122001F0CBFDB7
:10132C0000BF2837BD4680BD00240140001002409C
:10133C000010014000080140000C01402401002075
:10134C000800024080B582B000AF0C4B5B690B4AC1
:10135C0043F001035361094B5B6903F001037B60AC
:10136C007B6800220B210B2001F089FD0B2001F082
:10137C00A2FD00BF0837BD4680BD00BF0010024073
:10138C0080B588B000AF07F1100300221A605A60D4
:10139C009A60DA603F4B9B693E4A43F010039361BD
:1013AC003C4B9B6903F01003FB60FB68394B9B695A
:1013BC00384A43F020039361364B9B6903F02003BA
:1013CC00BB60BB68334B9B69324A43F004039361A7
:1013DC00304B9B6903F004037B607B682D4B9B694E
:1013EC002C4A43F0080393612A4B9B6903F00803D2
:1013FC003B603B6800224EF2C031274802F044FCAF
:10140C0000224FF2F831254802F03EFC00224FF446
:10141C000061234802F038FC4EF2C0333B610123DB
:10142C007B610023BB610223FB6107F110031946AA
:10143C00194802F0A5FA4FF2F8333B6101237B61A6
:10144C000023BB610223FB6107F11003194613480B
:10145C0002F096FA4FF480733B6100237B6100230A
:10146C00BB6107F1100319460D4802F089FA4FF4DD
:10147C0000633B6101237B610023BB610323FB61A0
:10148C0007F110031946064802F07AFA00BF20371C
:10149C00BD4680BD0010024000100140000C014010
:1014AC000008014080B582B000AF00F0F9FE00F0FA
:1014BC005FF802F0E5F8FFF763FF234B5B6A03F07C
:1014CC000053002B06D01021204802F0F5FB204BD6
:1014DC0001221A601F4B1B78FF2B21D01E4B0122BF
:1014EC001A701C4B7B6017E01C4B1B68002B06D141
:1014FC007B681B78102B02D1184A7B6813607B68C1
:10150C001B78FF2B04D17B68083B154A136007E05E
:10151C007B6803F580637B607B68124A9342E3D35C
:10152C00FFF75CFD00F09AF900F0CCFC0E4803F0DC
:10153C00C5F8322000F016FF0C4B1B780133DAB2E1
:10154C000A4B1A70F5E700BF00100240000C014076
:10155C00E0044242008001081C0300201403002018
:10156C00640000200088010884020020B4030020DD
:10157C0080B594B000AF07F128032822002118464B
:10158C0004F05AF907F1140300221A605A609A60A9
:10159C00DA601A613B1D00221A605A609A60DA60A8
:1015AC000923BB624FF48033FB6200233B630123AE
:1015BC00BB6301233B6402237B644FF48033BB6425
:1015CC000023FB6407F12803184602F0A7FB03462F
:1015DC00002B01D000F026F80F237B610223BB61A6
:1015EC000023FB6100233B6200237B6207F11403A1
:1015FC000021184602F012FE0346002B01D000F029
:10160C0011F802237B600023FB603B1D184602F09F
:10161C009FFF0346002B01D000F004F800BF5037A9
:10162C00BD4680BD80B400AF00BFBD4680BC7047D6
:10163C0080B584B000AF214B9B69204A43F0010375
:10164C0093611E4B9B6903F00103BB60BB681B4B92
:10165C00DB691A4A43F08053D361184BDB6903F002
:10166C0080537B607B6800220021012001F007FC85
:10167C00012001F020FC00220021042001F0FFFBDE
:10168C00042001F018FC00220021052001F0F7FBDA
:10169C00052001F010FC0A4B5B68FB60FB6823F033
:1016AC00E063FB60FB6843F00073FB60044AFB687B
:1016BC00536000BF1037BD4680BD00BF0010024014
:1016CC000000014080B400AF00BFBD4680BC704735
:1016DC0080B400AFFEE780B400AFFEE780B400AF8B
:1016EC00FEE780B400AFFEE780B400AF00BFBD469C
:1016FC0080BC704780B400AF00BFBD4680BC704753
:10170C0080B400AF00BFBD4680BC704780B500AF51
:10171C0000F00CFE00BF80BD80B500AF02F0E6FA11
:10172C0000BF80BD80B500AF01F0B4FE00BF80BD2E
:10173C0080B400AF00BFBD4680BC704780B500AF21
:10174C00034801F003FD034B01221A7000BF80BD5A
:10175C00240100206C01002080B500AF024800F08D
:10176C00DBFF00BF80BD00BFF400002080B500AFE0
:10177C00024803F044F800BF80BD00BF8402002083
:10178C0080B500AF024803F03AF800BF80BD00BF3F
:10179C008402002080B500AF024803F030F800BF8F
:1017AC0080BD00BF8402002080B500AF024803F06A
:1017BC0026F800BF80BD00BF8402002080B500AFBA
:1017CC00024803F01CF800BF80BD00BFCC02002013
:1017DC0080B500AF024803F027FD00BF80BD00BFFD
:1017EC003403002080B500AF024803F01DFD00BF9C
:1017FC0080BD00BF7403002080B584B000AF78605A
:10180C00114B1B68002B02D10F4B104A1A600E4B68
:10181C001B68FB600C4B1A687B6813446A46934246
:10182C0007D903F0DFFF03460C221A604FF0FF3399
:10183C0006E0054B1A687B681344034A1360FB6887
:10184C0018461037BD4680BD6801002020040020DA
:10185C0080B400AF00BFBD4680BC704780B592B06D
:10186C0000AF07F1400300221A605A6007F124030D
:10187C0000221A605A609A60DA601A615A619A61A1
:10188C003B1D20220021184603F0D6FF314B324A73
:10189C001A60304B43F67F625A602E4B00229A60DE
:1018AC002C4B6322DA602B4B00221A61294B00224D
:1018BC005A61284B00229A61264802F051FF0346D8
:1018CC00002B01D0FFF7AEFE00233B6400237B64AA
:1018DC0007F1400319461F4803F000FB0346002B99
:1018EC0001D0FFF79FFE00237B620023BB62002325
:1018FC00FB6200233B6300237B630023BB63002359
:10190C00FB6307F1240300221946124803F080F808
:10191C000346002B01D0FFF785FE00237B600023DC
:10192C00BB600023FB6000233B6100237B614FF411
:10193C000053BB6100233B623B1D1946054803F075
:10194C002BFB0346002B01D0FFF76CFE00BF483782
:10195C00BD4680BD84020020002C014080B584B0BF
:10196C0000AF78607B681B68264A93422CD1264BCB
:10197C009B69254A43F400639361234B9B6903F4F1
:10198C000063FB60FB6800220F21182001F077FA3E
:10199C00182001F090FA00220F21192001F06FFAA3
:1019AC00192001F088FA00220F211A2001F067FAA1
:1019BC001A2001F080FA00220F211B2001F05FFA9F
:1019CC001B2001F078FA18E07B681B68B3F1804F9C
:1019DC0013D10D4BDB690C4A43F00103D3610A4B65
:1019EC00DB6903F00103BB60BB68002200211C20F3
:1019FC0001F045FA1C2001F05EFA00BF1037BD461D
:101A0C0080BD00BF002C01400010024090B583B097
:101A1C0000AF78607B68164A934224D100F036F808
:101A2C0000F080F90346002B19D100F0A3F8114BFC
:101A3C001B68184600F0A2F903461C460E4B1B68A7
:101A4C001846FEF751FE03469BB222460B490C4842
:101A5C0003F0FAFE0C220A490A4803F04DFB082158
:101A6C00094802F029F900BF0C37BD4690BD00BFF4
:101A7C00840200202003002024030020E4730008CB
:101A8C002803002074030020000C014080B584B0B2
:101A9C0000AF0023FB6038E0254AFB6852F82300B6
:101AAC00244AFB6832F813300122194602F0ECF894
:101ABC0008222149214800F051FD00E000BF204BD5
:101ACC001B78002BFAD01E4B00221A700023BB602F
:101ADC0013E0194ABB6832F81330FB80FB68DA005C
:101AEC00BB681344174A127817495B001344FA88F1
:101AFC0021F81320BB680133BB60BB68072BE8DD02
:101B0C0000F024F8FB680133FB60FB68072BC3DD96
:101B1C000C4B1B780133002B03F00103B8BF5B4265
:101B2C00DAB2084B1A7000BF1037BD4680BD00BF3B
:101B3C00240000200400002070010020F40000208C
:101B4C006C010020800200208001002080B500AFD5
:101B5C0000224FF2E031054802F096F800224EF2D6
:101B6C00C031034802F090F800BF80BD000C01406A
:101B7C000010014090B589B000AF654B1B68002B7D
:101B8C0001D11023C0E0624B1B68FB61614B4FF02D
:101B9C0000021A60604B4FF000021A60FB691B7860
:101BAC00102B40F0A4800023FB76FB6902331B78DA
:101BBC00BB76FB6903331B787B76FB6904331B888C
:101BCC00184600F0BFF87861FB6906331B8818468D
:101BDC00FEF76CFB03463B614FF000013869FEF7E2
:101BEC0051FD0346002B01D00123FB76BB7EDB00AD
:101BFC00DAB27B7E1344DBB2184600F025F90346BB
:101C0C00FB81FB8940F6D862934201D90123FB7614
:101C1C00FB7E002B66D1FB89184600F0E9F80446E0
:101C2C003E493869FEF74EFC034619462046FEF73E
:101C3C0049FC0346BB60786904F040FA0346B96876
:101C4C001846FEF78BFB03461C46334B1B681846A5
:101C5C0004F034FA02462F4B1B6819461046FEF767
:101C6C007DFB034619462046FEF770FA03467B605F
:101C7C00786904F05FFA0346B9681846FEF76EFB04
:101C8C0003461C46244B1B68184604F053FA0246C4
:101C9C00204B1B6819461046FEF760FB034619469D
:101CAC002046FEF753FA03463B6079687868FEF7E6
:101CBC0055FB03461C4639683868FEF74FFB034654
:101CCC0019462046FEF742FA0346184604F072FA0B
:101CDC000346104A13607968386804F069FA0346C1
:101CEC000D4A1360FB6901331B78002B0AD0FB698A
:101CFC000833FB610A4B1B68FA699A42FFF44EAF3A
:101D0C00A12301E000BF002318462437BD4690BD37
:101D1C001403002024030020200300200000C842EC
:101D2C006400002080B400AF054B1B78002B01D160
:101D3C00A02300E000231846BD4680BC704700BFBE
:101D4C001C03002080B582B000AF0346FB80FB88EB
:101D5C001846FEF7ABFA034606491846FEF7FEFA9C
:101D6C00034605491846FEF7ADFB034618460837EF
:101D7C00BD4680BDF90F49400000344380B584B0A6
:101D8C0000AF786005E016497868FEF7DFF9034686
:101D9C007B604FF000017868FEF77EFC0346002B59
:101DAC00F1D110497868FEF7D9FA03460E49184666
:101DBC00FEF788FB03461846FEF796FC0346FB81AC
:101DCC00FB89DA080949A1FB021292084FF4B4719D
:101DDC0001FB02F29B1A9BB218461037BD4680BD20
:101DEC00F90FC94000003443F90F4940176CC11674
:101DFC0080B582B000AF0346FB80FB881846FEF727
:101E0C0059FA03460D491846FEF79EF90346194642
:101E1C000B48FEF757FB03460A491846FEF794F9A0
:101E2C0003461846FEF760FC03469BB21846FEF7C5
:101E3C003DFA034618460837BD4680BD00001644DF
:101E4C008096184A00803B4480B485B000AF0346AE
:101E5C00FB710023FB810023BB600CE0FB790B4979
:101E6C005A00BB68134431F81320FB891344FB81DF
:101E7C00BB680133BB60BB68012BEFDDFB895B08E2
:101E8C009BB218461437BD4680BC704780010020B9
:101E9C0080B588B000AF78600B46FB700023FB6107
:101EAC000023FB607B687B61FB78BB6107F11C0244
:101EBC0007F10C031146184601F0BAFC00BF20379D
:101ECC00BD4680BD80B500AF154B164A1A60144B49
:101EDC004FF4E1325A60124B00229A60104B0022F0
:101EEC00DA600F4B00221A610D4B0C225A610C4B1D
:101EFC0000229A610A4B0022DA61094803F0AFF81C
:101F0C000346002B01D0FFF78DFB01220649044844
:101F1C0003F036F9054B00221A7000BF80BD00BFDC
:101F2C007403002000480040E1030020B5030020AA
:101F3C0080B58CB000AF786007F11C0300221A60EA
:101F4C005A609A60DA607B681B68494A93423AD1BE
:101F5C00484B9B69474A43F480439361454B9B69CB
:101F6C0003F48043BB61BB69424B9B69414A43F01C
:101F7C00040393613F4B9B6903F004037B617B6912
:101F8C004FF40073FB6102233B620323BB6207F136
:101F9C001C031946384801F0F3FC4FF48063FB61D5
:101FAC0000233B6200237B6207F11C031946324875
:101FBC0001F0E6FC00220021252000F060FF252026
:101FCC0000F079FF50E07B681B682C4A93424BD1A0
:101FDC00284BDB69274A43F48023D361254BDB690B
:101FEC0003F480233B613B69224B9B69214A43F0FC
:101FFC00100393611F4B9B6903F01003FB60FB689C
:10200C004FF48063FB6102233B620323BB6207F145
:10201C001C0319461A4801F0B3FC4FF40063FB6132
:10202C0000233B6200237B6207F11C031946144812
:10203C0001F0A6FC134B5B68FB62FB6A23F03003D8
:10204C00FB62FB6A43F0E063FB62FB6A43F0100344
:10205C00FB620C4AFB6A536000220021272000F02F
:10206C000EFF272000F027FF00BF3037BD4680BD94
:10207C0000380140001002400008014000480040B8
:10208C00001001400000014080B582B000AF7860C4
:10209C0001221021264801F0F7FD264B1B78022B5C
:1020AC0011D1254B1B78002B03D0244B1B78012B13
:1020BC0009D9214B01221A70214B00221A701F4B97
:1020CC0000221A7026E01E4B1B78082B11D1194BDD
:1020DC001B78032B0DD1184B1B78012B09D1184BF6
:1020EC001B781946174800F031F8134B00221A7070
:1020FC0010E0114B1B78012B0CD1114B1B781A469D
:10210C000C4B19780F4B99540D4B1B780133DAB2E9
:10211C000B4B1A70012207490B4803F031F80022CF
:10212C001021034801F0B0FD00BF0837BD4680BD4B
:10213C00000C0140E1030020B5030020B403002093
:10214C00E0030020B80300207403002080B582B0A7
:10215C0000AF78600B46FB707B681B78013B1F2B34
:10216C0069D801A252F823F0252200083B2200086E
:10217C00432200084322000843220008432200089F
:10218C00432200084322000843220008432200088F
:10219C00432200084322000843220008432200087F
:1021AC0043220008F52100084322000843220008BE
:1021BC00432200084322000843220008432200085F
:1021CC00432200084322000843220008432200084F
:1021DC00432200084322000843220008432200083F
:1021EC00432200080D220008164B1B68002B03D15C
:1021FC00154B1B68134A1360786800F02DF81BE030
:10220C00124B1B68002B03D10F4B1B680F4A13603A
:10221C00786800F021F80FE00D4B00221A700A4B81
:10222C000C4A1A6002210B48FFF732FE04E0084BFF
:10223C0001221A7000E000BF002318460837BD4683
:10224C0080BD00BF14030020640000201803002090
:10225C001C0300200080010880B584B000AF7860BA
:10226C000D4B1B680D4A934201D301230FE07B6891
:10227C00FB60094B1968FB68D3E90023032001F0CC
:10228C0099F8054B1B680833034A13600023184662
:10229C001037BD4680BD00BF6400002000880108D7
:1022AC0080B500AF084B1B68074A43F0100313605E
:1022BC00032000F0D9FD002000F008F8FFF7B8F972
:1022CC000023184680BD00BF0020024080B582B0BC
:1022DC0000AF7860124B1A68124B1B7819464FF4FA
:1022EC007A73B3FBF1F3B2FBF3F3184600F0F1FD94
:1022FC000346002B01D001230EE07B680F2B0AD87C
:10230C00002279684FF0FF3000F0B9FD064A7B6877
:10231C001360002300E0012318460837BD4680BD3A
:10232C00000000206C0000206800002080B400AF8A
:10233C00054B1B781A46054B1B681344034A136064
:10234C0000BFBD4680BC70476C000020E403002039
:10235C0080B400AF024B1B681846BD4680BC70476A
:10236C00E403002080B584B000AF7860FFF7F0FF85
:10237C00B8607B68FB60FB68B3F1FF3F05D00A4B8C
:10238C001B781A46FB681344FB6000BFFFF7E0FFA5
:10239C000246BB68D31AFA689A42F7D800BF00BF4E
:1023AC001037BD4680BD00BF6C00002080B586B0E4
:1023BC0000AF78600023FB7500233B610023BB60FA
:1023CC000023FB607B68002B01D10123BEE07B68FE
:1023DC009B68002B7B689B6A002B09D17B680022D1
:1023EC00DA627B68002283F824207868FEF70AFF03
:1023FC00786800F0C3FB0346FB757B689B6A03F0AF
:10240C001003002B40F09980FB7D002B40F0958051
:10241C007B689B6A23F4885323F0020343F0020287
:10242C007B689A627B685A687B68DB691A437B68B5
:10243C001B7B5B001343BA681343BB607B689B68D0
:10244C00B3F5807F03D07B689B68012B02D14FF4DE
:10245C00807300E000233A6913433B617B681B7D6A
:10246C00012B19D17B681B7B002B09D17B689B69E5
:10247C00013B5A033B69134343F400633B610BE09C
:10248C007B689B6A43F020027B689A627B68DB6AFC
:10249C0043F001027B68DA627B681B685B6823F49B
:1024AC0069417B681B683A690A435A607B681B6800
:1024BC009A68284B13407A681268B9680B4393608A
:1024CC007B689B68B3F5807F03D07B689B68012B8E
:1024DC0004D17B681B69013B1B05FB607B681B6897
:1024EC00DB6A23F470017B681B68FA680A43DA62C2
:1024FC007B681B689A68184B1340BA689A420BD1D8
:10250C007B680022DA627B689B6A23F0030343F04A
:10251C0001027B689A6218E07B689B6A23F01203C5
:10252C0043F010027B689A627B68DB6A43F001021D
:10253C007B68DA620123FB7507E07B689B6A43F0DA
:10254C0010027B689A620123FB75FB7D18461837D5
:10255C00BD4680BDFDF7E1FFFE0E1FFF80B586B0C6
:10256C0000AFF860B9607A600023FB75FB681B68EC
:10257C00644A934204D0FB681B68634A934206D1B9
:10258C00604B5B6803F47023002B40F0B380FB6856
:10259C0093F82430012B01D10223AEE0FB68012219
:1025AC0083F82420F86800F097FA0346FB75FB7D4E
:1025BC00002B40F09A80FB689B6A23F4706323F035
:1025CC00010343F48072FB689A62FB681B684E4AF5
:1025DC00934205D14B4B5B6803F47023002B15D150
:1025EC00FB689B6A23F48012FB689A62FB681B6889
:1025FC005B6803F48063002B26D0FB689B6A23F492
:10260C00405343F48052FB689A621DE0FB689B6A5E
:10261C0043F48012FB689A62FB681B68394A934248
:10262C0004D0FB681B68384A93420DD1354B5B686C
:10263C0003F48063002B07D0FB689B6A23F44053A0
:10264C0043F48052FB689A62FB689B6A03F48053E4
:10265C00002B06D0FB68DB6A23F00602FB68DA620B
:10266C0002E0FB680022DA62FB68002283F8242077
:10267C00FB681B6A254A9A62FB681B6A244ADA6269
:10268C00FB681B6A234A1A63FB681B686FF0020223
:10269C001A60FB681B689A68FB681B6842F48072BE
:1026AC009A60FB68186AFB681B684C331946BA6859
:1026BC007B6800F075FCFB681B689B6803F4602367
:1026CC00B3F5602F08D1FB681B689A68FB681B6820
:1026DC0042F4A0029A600FE0FB681B689A68FB68E2
:1026EC001B6842F480129A6006E0FB68002283F8B3
:1026FC00242001E00123FB75FB7D18461837BD46ED
:10270C0080BD00BF0024014000280140FD2B0008C3
:10271C00792C0008952C000880B582B000AF786049
:10272C007B681B685B6803F02003202B40D17B681F
:10273C001B681B6803F00203022B39D17B689B6A70
:10274C0003F01003002B05D17B689B6A43F40072E5
:10275C007B689A627B681B689B6803F46023B3F503
:10276C00602F1DD17B681B7B002B19D17B681B68EC
:10277C005A687B681B6822F020025A607B689B6A4F
:10278C0023F480727B689A627B689B6A03F48053A3
:10279C00002B05D17B689B6A43F001027B689A622F
:1027AC00786800F07CF87B681B686FF012021A6086
:1027BC007B681B685B6803F08003802B4FD17B68C0
:1027CC001B681B6803F00403042B48D17B689B6ACD
:1027DC0003F01003002B05D17B689B6A43F4005275
:1027EC007B689A627B681B689B6803F4E043B3F5D3
:1027FC00E04F12D07B681B685B6803F48063002B8E
:10280C0025D17B681B689B6803F46023B3F5602FAC
:10281C001DD17B681B7B002B19D17B681B685A6808
:10282C007B681B6822F080025A607B689B6A23F4E9
:10283C0080527B689A627B689B6A03F48073002BDE
:10284C0005D17B689B6A43F001027B689A627868C9
:10285C0000F034FA7B681B686FF00C021A607B681E
:10286C001B685B6803F04003402B14D17B681B682A
:10287C001B6803F00103012B0DD17B689B6A43F4A9
:10288C0080327B689A62786800F01BF87B681B6862
:10289C006FF001021A6000BF0837BD4680BD80B4DE
:1028AC0083B000AF786000BF0C37BD4680BC70476A
:1028BC0080B483B000AF786000BF0C37BD4680BCDD
:1028CC00704780B483B000AF786000BF0C37BD4652
:1028DC0080BC704780B483B000AF786000BF0C3709
:1028EC00BD4680BC7047000080B485B000AF7860F6
:1028FC0039600023FB730023BB607B6893F82430A2
:10290C00012B01D10223DCE07B68012283F8242017
:10291C003B685B68062B1CD87B681B68596B3B6853
:10292C005A6813469B001344053B1F2202FA03F31B
:10293C00DB4319403B6818683B685A6813469B0098
:10294C001344053B00FA03F27B681B680A435A6385
:10295C003CE03B685B680C2B1CD87B681B68196BD4
:10296C003B685A6813469B001344233B1F2202FA10
:10297C0003F3DB4319403B6818683B685A681346FD
:10298C009B001344233B00FA03F27B681B680A4349
:10299C001A631BE07B681B68D96A3B685A6813464C
:1029AC009B001344413B1F2202FA03F3DB43194003
:1029BC003B6818683B685A6813469B001344413BBC
:1029CC0000FA03F27B681B680A43DA623B681B68F7
:1029DC00092B1CD97B681B68D9683B681A6813469D
:1029EC005B0013441E3B072202FA03F3DB4319403E
:1029FC003B6898683B681A6813465B0013441E3B9F
:102A0C0000FA03F27B681B680A43DA6019E07B6802
:102A1C001B6819693B681A6813465B00134407224C
:102A2C0002FA03F3DB4319403B6898683B681A6869
:102A3C0013465B00134400FA03F27B681B680A43DD
:102A4C001A613B681B68102B03D03B681B68112B69
:102A5C0032D17B681B681D4A934225D17B681B6869
:102A6C009B6803F40003002B26D17B681B689A68D3
:102A7C007B681B6842F400029A603B681B68102B51
:102A8C001AD1134B1B68134AA2FB03239A0C13464F
:102A9C009B0013445B00BB6002E0BB68013BBB6066
:102AAC00BB68002BF9D107E07B689B6A43F02002DE
:102ABC007B689A620123FB737B68002283F82420D5
:102ACC00FB7B18461437BD4680BC70470024014080
:102ADC000000002083DE1B4380B584B000AF78601B
:102AEC000023FB600023BB607B681B689B6803F0C2
:102AFC000103012B39D07B681B689A687B681B68C3
:102B0C0042F001029A601B4B1B681B4AA2FB032379
:102B1C009B0CBB6002E0BB68013BBB60BB68002B3D
:102B2C00F9D1FFF715FCF86018E0FFF711FC02462D
:102B3C00FB68D31A022B11D97B689B6A43F01002F5
:102B4C007B689A627B68DB6A43F001027B68DA621D
:102B5C007B68002283F82420012307E07B681B6834
:102B6C009B6803F00103012BDFD1002318461037BB
:102B7C00BD4680BD0000002083DE1B4380B584B0C1
:102B8C0000AF78600023FB607B681B689B6803F0D8
:102B9C000103012B27D17B681B689A687B681B6833
:102BAC0022F001029A60FFF7D3FBF86014E0FFF704
:102BBC00CFFB0246FB68D31A022B0DD97B689B6AAC
:102BCC0043F010027B689A627B68DB6A43F0010277
:102BDC007B68DA62012307E07B681B689B6803F063
:102BEC000103012BE3D0002318461037BD4680BDEE
:102BFC0080B584B000AF78607B685B6AFB60FB6873
:102C0C009B6A03F05003002B27D1FB689B6A43F4AB
:102C1C000072FB689A62FB681B689B6803F4602374
:102C2C00B3F5602F15D1FB681B7B002B11D1FB6812
:102C3C009B6A23F48072FB689A62FB689B6A03F4BC
:102C4C008053002B05D1FB689B6A43F00102FB68A3
:102C5C009A62F868FFF723FE04E0FB681B6A1B6BA3
:102C6C007868984700BF1037BD4680BD80B584B0EA
:102C7C0000AF78607B685B6AFB60F868FFF718FE52
:102C8C0000BF1037BD4680BD80B584B000AF786002
:102C9C007B685B6AFB60FB689B6A43F04002FB68E5
:102CAC009A62FB68DB6A43F00402FB68DA62F8683C
:102CBC00FFF710FE00BF1037BD4680BD80B483B057
:102CCC0000AF786000BF0C37BD4680BC7047000079
:102CDC0080B485B000AF78607B6803F00703FB60BD
:102CEC000C4BDB68BB60BA684FF6FF031340BB604C
:102CFC00FB681A02BB68134343F0BF6343F4003311
:102D0C00BB60044ABB68D36000BF1437BD4680BCAF
:102D1C00704700BF00ED00E080B400AF044BDB68EF
:102D2C001B0A03F007031846BD4680BC704700BF62
:102D3C0000ED00E080B483B000AF0346FB7197F95F
:102D4C000730002B0BDBFB7903F01F02064997F9C8
:102D5C0007305B09012000FA02F241F8232000BF82
:102D6C000C37BD4680BC704700E100E080B483B0F6
:102D7C0000AF03463960FB7197F90730002B0ADB73
:102D8C003B68DAB20C4997F907301201D2B20B4406
:102D9C0083F800230AE03B68DAB20849FB7903F0B8
:102DAC000F03043B1201D2B20B441A7600BF0C374E
:102DBC00BD4680BC704700BF00E100E000ED00E0C4
:102DCC0080B489B000AFF860B9607A60FB6803F03A
:102DDC000703FB61FB69C3F10703042B28BF042322
:102DEC00BB61FB690433062B02D9FB69033B00E092
:102DFC0000237B614FF0FF32BB6902FA03F3DA4325
:102E0C00BB681A407B699A404FF0FF317B6901FA2D
:102E1C0003F3D9437B680B40134318462437BD4654
:102E2C0080BC704780B582B000AF78607B68013B96
:102E3C00B3F1807F01D301230FE00A4A7B68013B89
:102E4C0053600F214FF0FF30FFF790FF054B00222E
:102E5C009A60044B07221A60002318460837BD46B7
:102E6C0080BD00BF10E000E080B582B000AF78609C
:102E7C007868FFF72DFF00BF0837BD4680BD80B5D1
:102E8C0086B000AF0346B9607A60FB7300237B61A8
:102E9C00FFF742FF78617A68B9687869FFF790FFAD
:102EAC00024697F90F3011461846FFF75FFF00BF37
:102EBC001837BD4680BD80B582B000AF0346FB71AC
:102ECC0097F907301846FFF735FF00BF0837BD46A6
:102EDC0080BD80B582B000AF78607868FFF7A2FF44
:102EEC00034618460837BD4680BD000080B485B047
:102EFC0000AF78600023FB607B68002B01D10123BD
:102F0C0043E07B681B681A46224B1344224AA2FBFF
:102F1C0003231B099A007B681A647B681F4ADA63D7
:102F2C007B68022283F821207B681B681B68FB608E
:102F3C00FB6823F47F5323F03003FB607B685A68F3
:102F4C007B689B681A437B68DB681A437B681B6948
:102F5C001A437B685B691A437B689B691A437B68DD
:102F6C00DB691343FA681343FB607B681B68FA68E0
:102F7C001A607B6800229A637B68012283F8212007
:102F8C007B68002283F82020002318461437BD46A6
:102F9C0080BC7047F8FFFDBFCDCCCCCC000002400C
:102FAC0080B586B000AFF860B9607A603B600023F2
:102FBC00FB75FB6893F82030012B01D102234AE00A
:102FCC00FB68012283F82020FB6893F82130012B49
:102FDC003AD1FB68022283F82120FB6800229A6315
:102FEC00FB681B681A68FB681B6822F001021A60F8
:102FFC003B687A68B968F86800F0AEF9FB68DB6A80
:10300C00002B08D0FB681B681A68FB681B6842F031
:10301C000E021A600FE0FB681B681A68FB681B68DD
:10302C0022F004021A60FB681B681A68FB681B68B4
:10303C0042F00A021A60FB681B681A68FB681B687E
:10304C0042F001021A6005E0FB68002283F82020A0
:10305C000223FB75FB7D18461837BD4680BD00006A
:10306C0080B584B000AF78600023FB737B6893F865
:10307C002130022B05D07B6804229A630123FB7359
:10308C0051E07B681B681A687B681B6822F00E0293
:10309C001A607B681B681A687B681B6822F0010247
:1030AC001A607B681B68224A934229D07B681B6894
:1030BC00204A934222D07B681B681F4A93421AD045
:1030CC007B681B681D4A934212D07B681B681C4AA4
:1030DC0093420AD07B681B681A4A934202D14FF480
:1030EC0080130EE04FF080730BE04FF4803308E058
:1030FC004FF4805305E04FF4807302E0102300E09E
:10310C000123114A53607B68012283F821207B68DC
:10311C00002283F820207B685B6B002B03D07B683C
:10312C005B6B78689847FB7B18461037BD4680BDB3
:10313C00080002401C0002403000024044000240E3
:10314C00580002406C0002400000024080B584B080
:10315C0000AF78607B68DB6B1B68FB607B681B686F
:10316C001B68BB607B681B6C04229A40FB68134095
:10317C00002B4FD0BB6803F00403002B4AD07B68B4
:10318C001B681B6803F02003002B07D17B681B68AE
:10319C001A687B681B6822F004021A607B681B6843
:1031AC00664A934229D07B681B68654A934222D0B9
:1031BC007B681B68634A93421AD07B681B68624A1F
:1031CC00934212D07B681B68604A93420AD07B689A
:1031DC001B685F4A934202D14FF480030EE04FF01C
:1031EC0080630BE04FF4802308E04FF4804305E04C
:1031FC004FF4806302E0402300E00423554A5360FF
:10320C007B68DB6A002B00F094807B68DB6A786853
:10321C0098478EE07B681B6C02229A40FB68134037
:10322C00002B56D0BB6803F00203002B51D07B68F7
:10323C001B681B6803F02003002B0BD17B681B68F9
:10324C001A687B681B6822F00A021A607B680122EC
:10325C0083F821207B681B68384A934229D07B680D
:10326C001B68374A934222D07B681B68354A9342CD
:10327C001AD07B681B68344A934212D07B681B6857
:10328C00324A93420AD07B681B68314A934202D17E
:10329C004FF400130EE04FF000730BE04FF40033CB
:1032AC0008E04FF4005305E04FF4007302E02023D4
:1032BC0000E00223274A53607B68002283F8202019
:1032CC007B689B6A002B34D07B689B6A7868984734
:1032DC002FE07B681B6C08229A40FB681340002B84
:1032EC0028D0BB6803F00803002B23D07B681B6835
:1032FC001A687B681B6822F00E021A607B681A6CD5
:10330C007B68DB6B012101FA02F25A607B680122B7
:10331C009A637B68012283F821207B68002283F862
:10332C0020207B681B6B002B04D07B681B6B7868A0
:10333C00984700BF00BF1037BD4680BD0800024053
:10334C001C00024030000240440002405800024081
:10335C006C0002400000024080B485B000AFF86001
:10336C00B9607A603B60FB681A6CFB68DB6B01210F
:10337C0001FA02F25A60FB681B683A685A60FB68F3
:10338C005B68102B08D1FB681B687A689A60FB6835
:10339C001B68BA68DA6007E0FB681B68BA689A6059
:1033AC00FB681B687A68DA6000BF1437BD4680BCC6
:1033BC0070470000F0B587B000AFF860B960C7E99E
:1033CC0000230123FB750023BB7500237B752F4B5A
:1033DC001B7E012B01D1022354E02C4B01221A76C7
:1033EC004CF2503000F08EF90346FB75FB7D002B40
:1033FC0044D1FB68012B02D101237B7507E0FB68EC
:10340C00022B02D102237B7501E004237B75002380
:10341C00BB752DE0BB7D5A00BB6802EB030CBB7D7A
:10342C001901D7E90023C1F12006A1F1200022FAED
:10343C0001F403FA06F6344323FA00F0044323FAAA
:10344C0001F5A3B21946604600F040F94CF2503039
:10345C0000F058F90346FB750D4B1B690C4A23F021
:10346C0001031361FB7D002B07D1BB7D0133BB75C1
:10347C00BA7D7B7D9A42CDD300E000BF034B002286
:10348C001A76FB7D18461C37BD46F0BDE8030020BC
:10349C000020024080B582B000AF00237B606D4BF2
:1034AC00DB6803F01003002B05D16A4BDB6803F0DB
:1034BC000403002B0ED0684B9B687B60664B4FF06F
:1034CC00FF329A6000F064F9786800F0D0F8624B33
:1034DC0000221A705F4BDB6803F02003002B00F016
:1034EC00A0805C4B2022DA605B4B1B78DBB2002B9C
:1034FC0000F09780584B1B78DBB2012B2DD1564B2B
:10350C005B68013B544A5360534B5B68002B17D0EC
:10351C00514B9B687B60786800F0A0F84E4B9B6821
:10352C0003F580637B604C4A7B689360494B1B6955
:10353C00484A23F002031361786800F001FA70E046
:10354C004FF0FF337B60444A7B689360424B002210
:10355C001A70786800F082F863E03F4B1B78DBB29E
:10356C00022B0CD13B4B1B693A4A23F00403136129
:10357C00002000F073F8384B00221A7051E0364BE3
:10358C005B68013B344A5360334B5B68002B24D09F
:10359C00314B9B680233304A93602F4B9B687B60A6
:1035AC002D4BD3E904014FF000024FF00003020C45
:1035BC0042EA01420B0C2849C1E90423254B1B6943
:1035CC00244A23F001031361234BD3E9042393B260
:1035DC001946786800F07AF823E01F4B1B78DBB2B1
:1035EC00032B05D11C4B9B68184600F037F811E0F3
:1035FC00194B1B78DBB2042B06D1174B9B68023B93
:10360C00184600F02BF805E0134B9B68063B184658
:10361C0000F024F8104B4FF0FF329A600E4B002252
:10362C001A700D4B1B78DBB2002B0ED1094B1B69AA
:10363C00084A23F007031361064B1B69054A23F460
:10364C00A0531361044B00221A7600BF0837BD4605
:10365C0080BD00BF00200240E803002080B483B08E
:10366C0000AF786000BF0C37BD4680BC704780B49B
:10367C0083B000AF786000BF0C37BD4680BC70478C
:10368C0080B483B000AF0023FB710D4B1B6903F0BA
:10369C008003002B0DD00A4B0A4A5A60084B0A4A89
:1036AC005A60074B1B6903F08003002B01D00123E8
:1036BC00FB71FB7918460C37BD4680BC704700BFC8
:1036CC000020024023016745AB89EFCD80B483B065
:1036DC0000AF78600B467B80084B0022DA61084B08
:1036EC001B69074A43F0010313617B687A881A80CF
:1036FC0000BF0C37BD4680BC704700BFE8030020FC
:10370C000020024080B584B000AF7860FEF720FE48
:10371C00F86010E07B68B3F1FF3F0CD07B68002BA6
:10372C0007D0FEF715FE0246FB68D31A7A689A4258
:10373C0001D2032325E0154BDB6803F00103002BBA
:10374C00E8D1124BDB6803F02003002B02D00F4BA7
:10375C002022DA600D4BDB6803F01003002B0BD139
:10376C000A4BDB6903F00103002B05D1074BDB6827
:10377C0003F00403002B03D000F00AF8012300E04F
:10378C00002318461037BD4680BD00BF0020024004
:10379C0080B483B000AF00237B60234BDB6803F065
:1037AC001003002B09D0214BDB6943F002031F4AA5
:1037BC00D3617B6843F010037B601B4BDB6803F029
:1037CC000403002B09D0194BDB6943F00103174AA2
:1037DC00D3617B6843F004037B60134BDB6903F01C
:1037EC000103002B0BD0114BDB6943F004030F4A90
:1037FC00D3610D4BDB690C4A23F00103D3617B6869
:10380C0040F20112934206D1074BDB69064A23F0C2
:10381C000103D36102E0044A7B68D36000BF0C371C
:10382C00BD4680BC704700BF00200240E80300206A
:10383C0080B584B000AF786039600123FB7300233E
:10384C00BB602F4B1B7E012B01D1022353E02C4B71
:10385C0001221A767B681B68022B16D14CF2503071
:10386C00FFF750FF0346002B41D1012000F04CF82C
:10387C004CF25030FFF746FF0346FB73214B1B699C
:10388C00204A23F00403136131E04CF25030FFF76F
:10389C0039FF0346002B2AD13B684FF0FF321A60E8
:1038AC007B689B68BB6019E0B86800F049F84CF283
:1038BC005030FFF727FF0346FB73124B1B69114A6D
:1038CC0023F002031361FB7B002B03D03B68BA6827
:1038DC001A600CE0BB6803F58063BB607B68DB6837
:1038EC009A027B689B681344BA689A42DCD3044BF7
:1038FC0000221A76FB7B18461037BD4680BD00BFF0
:10390C00E80300200020024080B483B000AF786050
:10391C00094B0022DA61094B1B69084A43F0040386
:10392C001361064B1B69054A43F04003136100BF4A
:10393C000C37BD4680BC7047E803002000200240D5
:10394C0080B483B000AF78600B4B0022DA610B4B74
:10395C001B690A4A43F002031361084A7B685361EE
:10396C00064B1B69054A43F04003136100BF0C373B
:10397C00BD4680BC704700BFE80300200020024019
:10398C0080B48BB000AF7860396000237B62002379
:10399C003B6269E101227B6A02FA03F3FB613B683B
:1039AC001B68FA691340BB61BA69FB699A4240F023
:1039BC0058813B685B689A4A93425ED0984A93421E
:1039CC0075D8984A934258D0964A93426FD8964AE3
:1039DC00934252D0944A934269D8944A93424CD021
:1039EC00924A934263D8924A934246D0904A934269
:1039FC005DD8122B2AD8122B59D801A252F823F0D9
:103A0C00873A0008613A0008733A0008B53A000892
:103A1C00BB3A0008BB3A0008BB3A0008BB3A0008A6
:103A2C00BB3A0008BB3A0008BB3A0008BB3A000896
:103A3C00BB3A0008BB3A0008BB3A0008BB3A000886
:103A4C00BB3A0008693A00087D3A0008794A93426B
:103A5C0013D02CE03B68DB683B6229E03B68DB68F9
:103A6C0004333B6224E03B68DB6808333B621FE0B5
:103A7C003B68DB680C333B621AE03B689B68002BAD
:103A8C0002D104233B6213E03B689B68012B05D1F8
:103A9C0008233B627B68FA691A6109E008233B62E0
:103AAC007B68FA695A6103E000233B6200E000BFC7
:103ABC00BB69FF2B01D87B6801E07B6804337B6119
:103ACC00BB69FF2B02D87B6A9B0002E07B6A083B38
:103ADC009B003B617B691A680F213B6901FA03F378
:103AEC00DB431A40396A3B6901FA03F31A437B69D9
:103AFC001A603B685B6803F08053002B00F0B180C8
:103B0C004D4B9B694C4A43F0010393614A4B9B69B3
:103B1C0003F00103BB60BB68484A7B6A9B08023315
:103B2C0052F82330FB607B6A03F003039B000F22E7
:103B3C0002FA03F3DB43FA681340FB607B68404AEC
:103B4C00934213D07B683F4A93420DD07B683E4A28
:103B5C00934207D07B683D4A934201D1032306E090
:103B6C00042304E0022302E0012300E000237A6A2C
:103B7C0002F0030292009340FA681343FB602F4952
:103B8C007B6A9B080233FA6841F823203B685B6828
:103B9C0003F48033002B06D02D4B1A682C49BB69DB
:103BAC0013430B6006E02A4B1A68BB69DB432849B8
:103BBC0013400B603B685B6803F40033002B06D0AA
:103BCC00234B5A682249BB6913434B6006E0204BD8
:103BDC005A68BB69DB431E4913404B603B685B680A
:103BEC0003F48013002B06D0194B9A681849BB6953
:103BFC0013438B6006E0164B9A68BB69DB43144990
:103C0C0013408B603B685B6803F40013002B21D0DE
:103C1C000F4BDA680E49BB691343CB6021E000BF40
:103C2C0000003210000031100000221000002110A2
:103C3C0000001210000011100010024000000140A2
:103C4C0000080140000C014000100140001401402C
:103C5C00000401400B4BDA68BB69DB430949134094
:103C6C00CB607B6A01337B623B681A687B6A22FA01
:103C7C0003F3002B7FF48EAE00BF00BF2C37BD4684
:103C8C0080BC70470004014080B483B000AF786002
:103C9C000B467B8013467B707B78002B03D07A8895
:103CAC007B681A6103E07B881A047B681A6100BF89
:103CBC000C37BD4680BC704780B485B000AF7860CF
:103CCC000B467B807B68DB68FB607A88FB68134063
:103CDC001A04FB68D9437B880B401A437B681A6132
:103CEC0000BF1437BD4680BC7047000080B500AFE4
:103CFC00064B5B6903F48033002B05D000F008F809
:103D0C00024B4FF480325A6100BF80BD0004014069
:103D1C0080B400AF00BFBD4680BC704780B586B094
:103D2C0000AF78607B68002B01D101236CE27B68CB
:103D3C001B6803F00103002B00F08780924B5B683B
:103D4C0003F00C03042B0CD08F4B5B6803F00C03BB
:103D5C00082B12D18C4B5B6803F48033B3F5803F96
:103D6C000BD1894B1B6803F40033002B6CD07B68A0
:103D7C005B68002B68D1012346E27B685B68B3F576
:103D8C00803F06D1804B1B687F4A43F4803313601D
:103D9C002EE07B685B68002B0CD17B4B1B687A4A4E
:103DAC0023F480331360784B1B68774A23F4802309
:103DBC0013601DE07B685B68B3F5A02F0CD1724BD0
:103DCC001B68714A43F4802313606F4B1B686E4A67
:103DDC0043F4803313600BE06B4B1B686A4A23F48B
:103DEC0080331360684B1B68674A23F4802313608D
:103DFC007B685B68002B13D0FEF7AAFA386108E0E9
:103E0C00FEF7A6FA02463B69D31A642B01D90323A9
:103E1C00FAE15D4B1B6803F40033002BF0D014E087
:103E2C00FEF796FA386108E0FEF792FA02463B6913
:103E3C00D31A642B01D90323E6E1534B1B6803F41B
:103E4C000033002BF0D100E000BF7B681B6803F04F
:103E5C000203002B63D04C4B5B6803F00C03002B6C
:103E6C000BD0494B5B6803F00C03082B1CD1464B61
:103E7C005B6803F48033002B16D1434B1B6803F0B3
:103E8C000203002B05D07B681B69012B01D0012399
:103E9C00BAE13D4B1B6823F0F8027B685B69DB00E1
:103EAC00394913430B603AE07B681B69002B20D027
:103EBC00364B01221A60FEF74BFA386108E0FEF728
:103ECC0047FA02463B69D31A022B01D903239BE123
:103EDC002D4B1B6803F00203002BF0D02A4B1B6800
:103EEC0023F0F8027B685B69DB00274913430B6006
:103EFC0015E0264B00221A60FEF72AFA386108E01A
:103F0C00FEF726FA02463B69D31A022B01D903238A
:103F1C007AE11D4B1B6803F00203002BF0D17B6888
:103F2C001B6803F00803002B3AD07B689B69002BBD
:103F3C0019D0174B01221A60FEF70AFA386108E013
:103F4C00FEF706FA02463B69D31A022B01D903236A
:103F5C005AE10D4B5B6A03F00203002BF0D00120F9
:103F6C0000F0D8FA1CE00A4B00221A60FEF7F0F9B8
:103F7C0038610FE0FEF7ECF902463B69D31A022BCD
:103F8C0008D9032340E100BF001002400000424268
:103F9C00800442429E4B5B6A03F00203002BE9D182
:103FAC007B681B6803F00403002B00F0A680002341
:103FBC00FB75974BDB6903F08053002B0DD1944BB1
:103FCC00DB69934A43F08053D361914BDB6903F077
:103FDC008053BB60BB680123FB758E4B1B6803F4DD
:103FEC008073002B18D18B4B1B688A4A43F4807367
:103FFC001360FEF7ADF9386108E0FEF7A9F9024647
:10400C003B69D31A642B01D90323FDE0814B1B6858
:10401C0003F48073002BF0D07B68DB68012B06D196
:10402C007B4B1B6A7A4A43F0010313622DE07B68D9
:10403C00DB68002B0CD1764B1B6A754A23F001030D
:10404C001362734B1B6A724A23F0040313621CE065
:10405C007B68DB68052B0CD16D4B1B6A6C4A43F0FB
:10406C00040313626A4B1B6A694A43F0010313622F
:10407C000BE0674B1B6A664A23F001031362644B27
:10408C001B6A634A23F0040313627B68DB68002B12
:10409C0015D0FEF75DF938610AE0FEF759F90246D2
:1040AC003B69D31A41F28832934201D90323ABE026
:1040BC00574B1B6A03F00203002BEED014E0FEF703
:1040CC0047F938610AE0FEF743F902463B69D31A17
:1040DC0041F28832934201D9032395E04C4B1B6A81
:1040EC0003F00203002BEED1FB7D012B05D1484BD5
:1040FC00DB69474A23F08053D3617B68DB69002B73
:10410C0000F08180424B5B6803F00C03082B61D0FC
:10411C007B68DB69022B46D13F4B00221A60FEF70D
:10412C0017F9386108E0FEF713F902463B69D31A18
:10413C00022B01D9032367E0354B1B6803F0007396
:10414C00002BF0D17B681B6AB3F5803F08D1304B54
:10415C005B6823F400327B689B682D4913434B60EA
:10416C002B4B5B6823F474127B68196A7B685B6A5F
:10417C000B43274913434B60274B01221A60FEF770
:10418C00E7F8386108E0FEF7E3F802463B69D31A1A
:10419C00022B01D9032337E01D4B1B6803F000737E
:1041AC00002BF0D02FE01C4B00221A60FEF7D0F849
:1041BC00386108E0FEF7CCF802463B69D31A022BB3
:1041CC0001D9032320E0124B1B6803F00073002B72
:1041DC00F0D118E07B68DB69012B01D1012313E0DE
:1041EC000B4B5B68FB60FB6803F480327B681B6ADB
:1041FC009A4206D1FB6803F470127B685B6A9A42A0
:10420C0001D0012300E0002318461837BD4680BDBD
:10421C0000100240007000406000424280B584B043
:10422C0000AF786039607B68002B01D10123D0E0AE
:10423C006A4B1B6803F007033A689A4210D9674B24
:10424C001B6823F0070265493B6813430B60634B03
:10425C001B6803F007033A689A4201D00123B8E0C7
:10426C007B681B6803F00203002B20D07B681B6863
:10427C0003F00403002B05D0594B5B68584A43F4F8
:10428C00E06353607B681B6803F00803002B05D0C8
:10429C00534B5B68524A43F460535360504B5B681A
:1042AC0023F0F0027B689B684D4913434B607B689D
:1042BC001B6803F00103002B40D07B685B68012B6B
:1042CC0007D1474B1B6803F40033002B15D1012396
:1042DC007FE07B685B68022B07D1414B1B6803F0C6
:1042EC000073002B09D1012373E03D4B1B6803F0D5
:1042FC000203002B01D101236BE0394B5B6823F0E7
:10430C0003027B685B68364913434B60FEF720F869
:10431C00F8600AE0FEF71CF80246FB68D31A41F27B
:10432C008832934201D9032353E02D4B5B6803F091
:10433C000C027B685B689B009A42EBD1274B1B6895
:10434C0003F007033A689A4210D2244B1B6823F0FF
:10435C00070222493B6813430B60204B1B6803F098
:10436C0007033A689A4201D0012332E07B681B684C
:10437C0003F00403002B08D0194B5B6823F4E062B4
:10438C007B68DB68164913434B607B681B6803F042
:10439C000803002B09D0124B5B6823F460527B6836
:1043AC001B69DB000E4913434B6000F021F80246F9
:1043BC000B4B5B681B0903F00F030A49CB5C22FA19
:1043CC0003F3094A1360094B1B681846FDF77EFF7F
:1043DC00002318461037BD4680BD00BF00200240A8
:1043EC000010024004740008000000206800002047
:1043FC0090B48AB000AF2A4B3C1D0FCB84E80F0061
:10440C0040F201233B800023FB610023BB610023AE
:10441C007B6200237B6100233B62224B5B68FB6168
:10442C00FB6903F00C03042B02D0082B03D02DE006
:10443C001D4B3B622DE0FB699B0C03F00F0307F156
:10444C002802134413F8243C7B61FB6903F480338A
:10445C00002B13D0134B5B685B0C03F0010307F1CB
:10446C002802134413F8283CBB617B690E4A02FBFB
:10447C0003F2BB69B2FBF3F37B6204E07B690B4A8A
:10448C0002FB03F37B627B6A3B6202E0064B3B62FE
:10449C0000BF3B6A18462837BD4690BC704700BF2A
:1044AC00F47300080010024000127A0000093D006D
:1044BC0080B400AF024B1B681846BD4680BC7047E9
:1044CC000000002080B500AFFFF7F2FF0246054B5D
:1044DC005B681B0A03F007030349CB5C22FA03F366
:1044EC00184680BD001002401474000880B500AF5F
:1044FC00FFF7DEFF0246054B5B68DB0A03F00703A0
:10450C000349CB5C22FA03F3184680BD001002402D
:10451C001474000880B485B000AF78600A4B1B6837
:10452C000A4AA2FB03235B0A7A6802FB03F3FB60D3
:10453C0000BFFB685A1EFA60002BF9D100BF00BF08
:10454C001437BD4680BC704700000020D34D62106C
:10455C0080B586B000AF786000233B610023FB6020
:10456C007B681B6803F00103002B7DD00023FB75D7
:10457C004F4BDB6903F08053002B0DD14C4BDB69A7
:10458C004B4A43F08053D361494BDB6903F08053B2
:10459C00BB60BB680123FB75464B1B6803F480733F
:1045AC00002B18D1434B1B68424A43F480731360B1
:1045BC00FDF7CEFE386108E0FDF7CAFE02463B6906
:1045CC00D31A642B01D903236DE03A4B1B6803F417
:1045DC008073002BF0D0364B1B6A03F44073FB60E6
:1045EC00FB68002B2ED07B685B6803F44073FA6881
:1045FC009A4227D02E4B1B6A23F44073FB602E4B40
:10460C0001221A602C4B00221A60294AFB681362A3
:10461C00FB6803F00103002B14D0FDF799FE386101
:10462C000AE0FDF795FE02463B69D31A41F2883247
:10463C00934201D9032336E01D4B1B6A03F002039E
:10464C00002BEED01A4B1B6A23F440727B685B681C
:10465C00174913430B62FB7D012B05D1144BDB690E
:10466C00134A23F08053D3617B681B6803F0020369
:10467C00002B08D00E4B5B6823F440427B689B6890
:10468C000B4913434B607B681B6803F01003002B32
:10469C0008D0074B5B6823F480027B68DB68044915
:1046AC0013434B60002318461837BD4680BD00BF2E
:1046BC0000100240007000404004424280B485B0BB
:1046CC0000AF78607B6893F83D30DBB2012B01D0F2
:1046DC0001233AE07B68022283F83D207B681B684B
:1046EC00DA687B681B6842F00102DA607B681B6841
:1046FC00184A93420ED07B681B68B3F1804F09D0E7
:10470C007B681B68144A934204D07B681B68134A6D
:10471C00934211D17B681B689B6803F00703FB6015
:10472C00FB68062B10D07B681B681A687B681B68BB
:10473C0042F001021A6007E07B681B681A687B680C
:10474C001B6842F001021A60002318461437BD465C
:10475C0080BC7047002C0140000400400008004061
:10476C0080B582B000AF78607B68002B01D101234B
:10477C0041E07B6893F83D30DBB2002B06D17B68BF
:10478C00002283F83C207868FDF7E8F87B68022269
:10479C0083F83D207B681A687B6804331946104601
:1047AC0000F0B2F97B68012283F846207B68012275
:1047BC0083F83E207B68012283F83F207B6801222E
:1047CC0083F840207B68012283F841207B6801221A
:1047DC0083F842207B68012283F843207B68012206
:1047EC0083F844207B68012283F845207B680122F2
:1047FC0083F83D20002318460837BD4680BD80B5A0
:10480C0082B000AF78607B681B681B6903F0020301
:10481C00022B22D17B681B68DB6803F00203022B9E
:10482C001BD17B681B686FF002021A617B68012246
:10483C001A777B681B689B6903F00303002B03D07A
:10484C00786800F046F905E0786800F039F9786886
:10485C0000F048F97B6800221A777B681B681B699B
:10486C0003F00403042B22D17B681B68DB6803F084
:10487C000403042B1BD17B681B686FF004021A61C4
:10488C007B6802221A777B681B689B6903F4407370
:10489C00002B03D0786800F01CF905E0786800F074
:1048AC000FF9786800F01EF97B6800221A777B6894
:1048BC001B681B6903F00803082B22D17B681B685B
:1048CC00DB6803F00803082B1BD17B681B686FF0B7
:1048DC0008021A617B6804221A777B681B68DB6903
:1048EC0003F00303002B03D0786800F0F2F805E026
:1048FC00786800F0E5F8786800F0F4F87B6800223E
:10490C001A777B681B681B6903F01003102B22D1EC
:10491C007B681B68DB6803F01003102B1BD17B68D2
:10492C001B686FF010021A617B6808221A777B688B
:10493C001B68DB6903F44073002B03D0786800F02C
:10494C00C8F805E0786800F0BBF8786800F0CAF8A1
:10495C007B6800221A777B681B681B6903F00103D4
:10496C00012B0ED17B681B68DB6803F00103012B64
:10497C0007D17B681B686FF001021A617868FDF73C
:10498C0045F87B681B681B6903F08003802B0ED1F4
:10499C007B681B68DB6803F08003802B07D17B6886
:1049AC001B686FF080021A61786800F04FFB7B681F
:1049BC001B681B6903F04003402B0ED17B681B68FE
:1049CC00DB6803F04003402B07D17B681B686FF05A
:1049DC0040021A61786800F08EF87B681B681B69CE
:1049EC0003F02003202B0ED17B681B68DB6803F0DF
:1049FC002003202B07D17B681B686FF020021A6103
:104A0C00786800F01AFB00BF0837BD4680BD000077
:104A1C0080B584B000AFF860B9607A60FB6893F839
:104A2C003C30012B01D1022346E0FB68012283F8C4
:104A3C003C207B680C2B39D801A252F823F000BF24
:104A4C00814A0008B94A0008B94A0008B94A000866
:104A5C008F4A0008B94A0008B94A0008B94A000848
:104A6C009D4A0008B94A0008B94A0008B94A00082A
:104A7C00AB4A0008FB681B68B968184600F0A6F83A
:104A8C0015E0FB681B68B968184600F005F90EE0E4
:104A9C00FB681B68B968184600F068F907E0FB680A
:104AAC001B68B968184600F0CBF900E000BFFB6842
:104ABC00002283F83C20002318461037BD4680BDE9
:104ACC0080B483B000AF786000BF0C37BD4680BCAB
:104ADC00704780B483B000AF786000BF0C37BD4620
:104AEC0080BC704780B483B000AF786000BF0C37D7
:104AFC00BD4680BC704780B483B000AF786000BF07
:104B0C000C37BD4680BC704780B485B000AF786070
:104B1C0039607B681B68FB607B68294A93420BD029
:104B2C007B68B3F1804F07D07B68264A934203D051
:104B3C007B68254A934208D1FB6823F07003FB6025
:104B4C003B685B68FA681343FB607B681C4A9342C2
:104B5C000BD07B68B3F1804F07D07B68194A934226
:104B6C0003D07B68184A934208D1FB6823F4407346
:104B7C00FB603B68DB68FA681343FB60FB6823F05F
:104B8C0080023B685B691343FB607B68FA681A60C0
:104B9C003B689A687B68DA623B681A687B689A6241
:104BAC007B68074A934203D13B681A697B681A6396
:104BBC007B6801225A6100BF1437BD4680BC704728
:104BCC00002C0140000400400008004080B487B075
:104BDC0000AF786039607B681B6A23F001027B6848
:104BEC001A627B681B6A7B617B685B683B617B68D4
:104BFC009B69FB60FB6823F07003FB60FB6823F090
:104C0C000303FB603B681B68FA681343FB607B691A
:104C1C0023F002037B613B689B687A6913437B61D9
:104C2C007B681C4A93420CD17B6923F008037B619F
:104C3C003B68DB687A6913437B617B6923F004036F
:104C4C007B617B68134A934211D13B6923F48073D7
:104C5C003B613B6923F400733B613B685B693A69D8
:104C6C0013433B613B689B693A6913433B617B6827
:104C7C003A695A607B68FA689A613B685A687B6843
:104C8C005A637B687A691A6200BF1C37BD4680BCC8
:104C9C00704700BF002C014080B487B000AF786033
:104CAC0039607B681B6A23F010027B681A627B6890
:104CBC001B6A7B617B685B683B617B689B69FB6003
:104CCC00FB6823F4E043FB60FB6823F44073FB6058
:104CDC003B681B681B02FA681343FB607B6923F07B
:104CEC0020037B613B689B681B017A6913437B61E2
:104CFC007B681D4A93420DD17B6923F080037B6155
:104D0C003B68DB681B017A6913437B617B6923F089
:104D1C0040037B617B68144A934213D13B6923F4B3
:104D2C0080633B613B6923F400633B613B685B69D7
:104D3C009B003A6913433B613B689B699B003A6952
:104D4C0013433B617B683A695A607B68FA689A61E5
:104D5C003B685A687B689A637B687A691A6200BF01
:104D6C001C37BD4680BC7047002C014080B487B016
:104D7C0000AF786039607B681B6A23F480727B68B3
:104D8C001A627B681B6A7B617B685B683B617B6832
:104D9C00DB69FB60FB6823F07003FB60FB6823F0AE
:104DAC000303FB603B681B68FA681343FB607B6979
:104DBC0023F400737B613B689B681B027A69134385
:104DCC007B617B681D4A93420DD17B6923F40063A0
:104DDC007B613B68DB681B027A6913437B617B69EF
:104DEC0023F480637B617B68144A934213D13B6943
:104DFC0023F480533B613B6923F400533B613B68D4
:104E0C005B691B013A6913433B613B689B691B015E
:104E1C003A6913433B617B683A695A607B68FA686C
:104E2C00DA613B685A687B68DA637B687A691A6274
:104E3C0000BF1C37BD4680BC704700BF002C014032
:104E4C0080B487B000AF786039607B681B6A23F44C
:104E5C0080527B681A627B681B6A3B617B685B686B
:104E6C007B617B68DB69FB60FB6823F4E043FB60E0
:104E7C00FB6823F44073FB603B681B681B02FA68F9
:104E8C001343FB603B6923F400533B613B689B6815
:104E9C001B033A6913433B617B680F4A934209D168
:104EAC007B6923F480437B613B685B699B017A6976
:104EBC0013437B617B687A695A607B68FA68DA61B4
:104ECC003B685A687B681A647B683A691A6200BF4F
:104EDC001C37BD4680BC7047002C014080B485B0A7
:104EEC0000AF786039607B6893F83C30012B01D1BE
:104EFC00022346E07B68012283F83C207B68022277
:104F0C0083F83D207B681B685B68FB607B681B68D3
:104F1C009B68BB60FB6823F07003FB603B681B68FD
:104F2C00FA681343FB607B681B68FA685A607B68FD
:104F3C001B68164A93420ED07B681B68B3F1804FF6
:104F4C0009D07B681B68124A934204D07B681B68AB
:104F5C00104A93420CD1BB6823F08003BB603B68C2
:104F6C005B68BA681343BB607B681B68BA689A605D
:104F7C007B68012283F83D207B68002283F83C206B
:104F8C00002318461437BD4680BC7047002C0140E6
:104F9C00000400400008004080B485B000AF786089
:104FAC0039600023FB607B6893F83C30012B01D106
:104FBC0002233DE07B68012283F83C20FB6823F050
:104FCC00FF023B68DB681343FB60FB6823F4407211
:104FDC003B689B681343FB60FB6823F480623B686F
:104FEC005B681343FB60FB6823F400623B681B683F
:104FFC001343FB60FB6823F480523B681B6913432B
:10500C00FB60FB6823F400523B685B691343FB6055
:10501C00FB6823F480423B68DB691343FB607B68CD
:10502C001B68FA685A647B68002283F83C200023D2
:10503C0018461437BD4680BC704780B483B000AFAF
:10504C00786000BF0C37BD4680BC704780B483B01D
:10505C0000AF786000BF0C37BD4680BC704780B590
:10506C0082B000AF78607B68002B01D101233FE058
:10507C007B6893F83930DBB2002B06D17B680022B9
:10508C0083F838207868FCF753FF7B68242283F878
:10509C0039207B681B68DA687B681B6822F4005235
:1050AC00DA60786800F0EAFA7B681B681A697B683A
:1050BC001B6822F490421A617B681B685A697B68F2
:1050CC001B6822F02A025A617B681B68DA687B68CD
:1050DC001B6842F40052DA607B680022DA637B685A
:1050EC00202283F839207B68202283F83A20002381
:1050FC0018460837BD4680BD80B485B000AFF86057
:10510C00B9601346FB80FB6893F83930DBB2202B77
:10511C0030D1BB68002B02D0FB88002B01D10123BE
:10512C0029E0FB6893F83830012B01D1022322E0EF
:10513C00FB68012283F83820FB68BA681A62FB68A6
:10514C00FA889A84FB68FA88DA84FB680022DA63AE
:10515C00FB68212283F83920FB68002283F8382071
:10516C00FB681B68DA68FB681B6842F08002DA6037
:10517C00002300E0022318461437BD4680BC70475C
:10518C0080B485B000AFF860B9601346FB80FB6853
:10519C0093F83A30DBB2202B40D1BB68002B02D005
:1051AC00FB88002B01D1012339E0FB6893F83830E0
:1051BC00012B01D1022332E0FB68012283F8382055
:1051CC00FB68BA689A62FB68FA889A85FB68FA8869
:1051DC00DA85FB680022DA63FB68222283F83A2026
:1051EC00FB68002283F83820FB681B68DA68FB68D0
:1051FC001B6842F48072DA60FB681B685A69FB68B2
:10520C001B6842F001025A61FB681B68DA68FB6894
:10521C001B6842F02002DA60002300E002231846EB
:10522C001437BD4680BC704780B588B000AF78603D
:10523C007B681B681B68FB617B681B68DB68BB6158
:10524C007B681B685B697B6100233B610023FB600F
:10525C00FB6903F00F033B613B69002B0DD1FB692C
:10526C0003F02003002B08D0BB6903F02003002BB4
:10527C0003D0786800F082F9D0E03B69002B00F095
:10528C00B0807B6903F00103002B05D1BB6903F4EB
:10529C009073002B00F0A580FB6903F00103002B39
:1052AC000AD0BB6903F48073002B05D07B68DB6BE1
:1052BC0043F001027B68DA63FB6903F00403002B03
:1052CC000AD07B6903F00103002B05D07B68DB6BF4
:1052DC0043F002027B68DA63FB6903F00203002BE4
:1052EC000AD07B6903F00103002B05D07B68DB6BD4
:1052FC0043F004027B68DA63FB6903F00803002BBC
:10530C000FD0BB6903F02003002B04D17B6903F0A1
:10531C000103002B05D07B68DB6B43F008027B6834
:10532C00DA637B68DB6B002B77D0FB6903F020031F
:10533C00002B07D0BB6903F02003002B02D0786848
:10534C0000F01CF97B681B685B6903F04003002BC1
:10535C0014BF01230023DBB2FB607B68DB6B03F023
:10536C000803002B02D1FB68002B31D0786800F0C9
:10537C006DF87B681B685B6903F04003002B23D03E
:10538C007B681B685A697B681B6822F040025A6173
:10539C007B685B6B002B13D07B685B6B214A5A6379
:1053AC007B685B6B1846FDF75BFE0346002B16D043
:1053BC007B685B6B5B6B7A68526B104698470EE0B0
:1053CC00786800F03AF80AE0786800F036F806E001
:1053DC00786800F032F87B680022DA631DE000BFC9
:1053EC001BE0FB6903F08003002B08D0BB6903F0C2
:1053FC008003002B03D0786800F059F80EE0FB69AD
:10540C0003F04003002B09D0BB6903F04003002BD1
:10541C0004D0786800F09AF800E000BF2037BD4651
:10542C0080BD00BF9354000880B483B000AF786097
:10543C0000BF0C37BD4680BC704780B483B000AF52
:10544C00786000BF0C37BD4680BC704780B483B019
:10545C0000AF78607B681B68DA687B681B6822F495
:10546C009072DA607B681B685A697B681B6822F053
:10547C0001025A617B68202283F83A2000BF0C3766
:10548C00BD4680BC704780B584B000AF78607B6847
:10549C005B6AFB60FB680022DA85FB680022DA8419
:1054AC00F868FFF7CAFF00BF1037BD4680BD80B457
:1054BC0085B000AF78607B6893F83930DBB2212B74
:1054CC003ED17B689B68B3F5805F14D17B681B6908
:1054DC00002B10D17B681B6AFB60FB681B881A468B
:1054EC007B681B68C2F308025A607B681B6A9A1CB3
:1054FC007B681A6208E07B681B6A591C7A68116227
:10550C001A787B681B685A607B68DB8C9BB2013B0A
:10551C009BB27A681946D184002B0FD17B681B682B
:10552C00DA687B681B6822F08002DA607B681B6893
:10553C00DA687B681B6842F04002DA60002300E006
:10554C00022318461437BD4680BC704780B582B024
:10555C0000AF78607B681B68DA687B681B6822F098
:10556C004002DA607B68202283F839207868FFF7E4
:10557C005BFF002318460837BD4680BD80B584B05C
:10558C0000AF78607B6893F83A30DBB2222B70D195
:10559C007B689B68B3F5805F17D17B681B69002B18
:1055AC0013D10023FB607B689B6ABB607B681B6824
:1055BC005B689BB2C3F308039AB2BB681A807B6822
:1055CC009B6A9A1C7B689A6226E07B689B6AFB60EC
:1055DC000023BB607B689B68B3F5805F07D07B685A
:1055EC009B68002B0AD17B681B69002B06D17B685A
:1055FC001B685B68DAB2FB681A7008E07B681B6892
:10560C005B68DBB203F07F03DAB2FB681A707B686D
:10561C009B6A5A1C7B689A627B68DB8D9BB2013B50
:10562C009BB27A681946D185002B20D17B681B6808
:10563C00DA687B681B6822F02002DA607B681B68E2
:10564C00DA687B681B6822F48072DA607B681B68FE
:10565C005A697B681B6822F001025A617B68202220
:10566C0083F83A207868FCF70FFD002302E0002352
:10567C0000E0022318461037BD4680BD80B584B0CB
:10568C0000AF78607B681B681B6923F440517B6812
:10569C00DA687B681B680A431A617B689A687B68C6
:1056AC001B691A437B685B691343BB607B681B688F
:1056BC00DB6823F4B05323F00C037A681268B968E2
:1056CC000B43D3607B681B685B6923F440717B6878
:1056DC009A697B681B680A435A617B681B682C4A71
:1056EC00934203D1FEF702FFF86002E0FEF7EAFEF8
:1056FC00F860FA6813469B0013449A001A447B68BE
:10570C005B689B00B2FBF3F3224AA2FB03235B0909
:10571C001901FA6813469B0013449A001A447B68DB
:10572C005B689B00B2FBF3F21A4BA3FB02035B0911
:10573C00642000FB03F3D31A1B013233154AA2FB7E
:10574C0003235B0903F0F0031944FA6813469B002A
:10575C0013449A001A447B685B689B00B2FBF3F21B
:10576C000C4BA3FB02035B09642000FB03F3D31A6D
:10577C001B013233074AA2FB03235B0903F00F0220
:10578C007B681B680A449A6000BF1037BD4680BD19
:10579C00003801401F85EB51002103E00B4B5B5897
:1057AC00435004310A480B4B42189A42F6D30A4A2A
:1057BC0002E0002342F8043B084B9A42F9D3FCF771
:1057CC0047F800F015F8FBF76DFE70476878000895
:1057DC0000000020D8000020D80000202004002069
:1057EC00FEE70000014B1868704700BF70000020F6
:1057FC0070B500260C4D0D4C641BA410A64209D1AB
:10580C0001F0DEFD00260A4D0A4C641BA410A642D2
:10581C0005D170BD55F8043B98470136EEE755F8B5
:10582C00043B98470136F2E760780008607800087E
:10583C00607800086478000803460244934200D163
:10584C00704703F8011BF9E70EB46FF0004100B587
:10585C009CB01DAB02900690079104910848094931
:10586C0053F8042B0591006802A9019300F068F825
:10587C000022029B1A701CB05DF804EB03B0704759
:10588C00700000200802FFFF2DE9F0478E68824669
:10589C009E420C4690461F4638D88A8912F4906F67
:1058AC0032D0256809690133A5EB010965694B44C0
:1058BC0005EB450505EBD5756D109D4238BF1D46B2
:1058CC00530531D5294600F053FB064650B90C233D
:1058DC004FF0FF30CAF80030A38943F04003A38196
:1058EC00BDE8F0874A46216900F0CEFAA38923F47B
:1058FC00906343F08003A38126614E4426603E46AC
:10590C006561A5EB0905A560BE4200D93E4632464D
:10591C004146206800F0C6FAA36822689B1B3244FB
:10592C000020A3602260DBE72A4600F07BFB0646E2
:10593C000028E1D15046216900F0CEFAC7E70000FB
:10594C002DE9F04F98468B8907461B060D461446E9
:10595C009DB00ED50B6963B9402100F009FB28609E
:10596C00286120B90C233B604FF0FF30D1E040237D
:10597C006B610023099320238DF8293030234FF0DD
:10598C000109CDF80C80DFF8A4818DF82A3023466C
:10599C009A4613F8012B0AB1252AF9D1BAEB040B5C
:1059AC000BD05B46224629463846FFF76DFF013087
:1059BC0000F0AA80099A5A4409929AF80030002BF8
:1059CC0000F0A28000234FF0FF32CDE905230AF14D
:1059DC00010A049307938DF853301A935446052209
:1059EC0014F8011B514800F041FA049AD8B9D006BA
:1059FC0044BF20238DF85330110744BF2B238DF85F
:105A0C0053309AF800302A2B15D0544600204FF012
:105A1C000A0C079A214611F8013B303B092B4ED951
:105A2C00B0B1079214E0A0EB080309FA03F3134397
:105A3C00A2460493D2E7039B191D1B680391002B0C
:105A4C00BBBF5B4242F0020207930793B8BF0492BC
:105A5C0023782E2B0CD163782A2B35D1039B02345F
:105A6C001A1D1B680392002BB8BF4FF0FF33059330
:105A7C00DFF8C8A003225046217800F0F7F940B1B6
:105A8C004023A0EB0A0003FA00F0049B013403430B
:105A9C00049314F8011B062225488DF8281000F0F9
:105AAC00E5F9002838D0234B1BBB039B073323F0AD
:105ABC00070308330393099B3344099367E70C46A8
:105ACC0001200CFB0232A5E700234FF00A0C19460B
